S01600004E54495F52375F557064617465642E7372656315
S11300000C942A000C9403020C942C020C945502B8
S11300100C9447000C9447000C9447000C94470040
S11300200C9447000C9447000C9468030C942B0325
S11300300C9402030C9447000C9447000C94470062
S11300400C9447000C9447000C9447000C94470010
S11300500C94470011241FBECFE5D8E0DEBFCDBF0E
S113006010E0A0E6B0E0EEE1FCE002C005900D92E5
S1130070A038B107D9F720E0A0E8B0E001C01D9294
S1130080A239B207E1F70E9492000C940D060C9479
S11300900000089561E08BE00E94840161E08CE03F
S11300A00C94840161E08BE00E94840160E08CE0A8
S11300B00C948401CF93C62F813029F0823029F427
S11300C00E94520002C00E944A008C2FCF910C94CF
S11300D08B0208950C949F02682F70E080E090E0FA
S11300E00E94BA0420E030E044EB52E40E94A603EC
S11300F020E030E044E353E40E94170420E030E0C1
S113010040EA50E40E946A0520E030E040EA50E40E
S11301100E94A6039B01AC0162E370E080E090E0E2
S11301200C94B2020E94A6000E9449000E947E0222
S113013061E081E00E945A000E949F020E946900CF
S11301400E946A0086E40E946C00FFCFE0E6F0E0C3
S113015040E081E090E05191242F2770342F3695B0
S113016036953695513009F443C020F0523009F4E5
S113017082C0C5C0323001F1333061F1313071F0E9
S11301805AB3BC0102C0660F771F2A95E2F79B01A0
S1130190352F322B3ABB3BB320953DC057B3BC013E
S11301A002C0660F771F2A95E2F79B01352F322B89
S11301B037BB38B320953EC054B3BC0102C0660FB0
S11301C0771F2A95E2F79B01352F322B34BB35B3C9
S11301D020953FC051B3BC0102C0660F771F2A951A
S11301E0E2F79B01352F322B31BB32B3209541C04E
S11301F0323011F1333081F1313079F05AB3BC012E
S113020002C0660F771F2A95E2F79B012095352FD0
S113021032233ABB3BB3232342C057B3BC0102C0D1
S1130220660F771F2A95E2F79B012095352F32231D
S113023037BB38B3232343C054B3BC0102C0660F99
S1130240771F2A95E2F79B012095352F322334BB83
S113025035B3232325BB53C051B3BC0102C0660F81
S1130260771F2A95E2F79B012095352F322331BB66
S113027032B3232343C0323021F1333089F131309A
S113028081F05AB3BC0102C0660F771F2A95E2F7CA
S11302909B01362F309535233ABB3BB3232B2BBB25
S11302A02EC057B3BC0102C0660F771F2A95E2F730
S11302B09B01362F3095352337BB38B3232B28BB0E
S11302C01EC054B3BC0102C0660F771F2A95E2F723
S11302D09B01362F3095352334BB35B3232BBACF4E
S11302E051B3BC0102C0660F771F2A95E2F79B0148
S11302F0362F3095352331BB32B3232B22BB4F5FCE
S1130300403209F028CF0895982F977086958695E6
S113031086956130C1F5813091F028F08230D9F0B2
S1130320833029F108954BB321E030E0B90102C0D4
S1130330660F771F9A95E2F7CB01842B38C048B338
S113034021E030E0B90102C0660F771F9A95E2F709
S1130350CB01842B3AC045B321E030E0B90102C09F
S1130360660F771F9A95E2F7CB01842B3CC042B30A
S113037021E030E0B90102C0660F771F9A95E2F7D9
S1130380CB01842B3EC08130A1F028F08230F9F0FB
S1130390833059F108954BB321E030E0B90102C034
S11303A0660F771F9A95E2F7CB01809584238BBB68
S11303B0089548B321E030E0B90102C0660F771F09
S11303C09A95E2F7CB018095842388BB089545B3C1
S11303D021E030E0B90102C0660F771F9A95E2F779
S11303E0CB018095842385BB089542B321E030E09E
S11303F0B90102C0660F771F9A95E2F7CB01809589
S1130400842382BB08951F920F920FB60F9211247A
S11304102F933F934F935F936F937F938F939F9308
S1130420AF93BF93EF93FF93E0918000F09181002D
S1130430309709F00995FF91EF91BF91AF919F918A
S11304408F917F916F915F914F913F912F910F9079
S11304500FBE0F901F9018951F920F920FB60F9218
S113046011242F933F934F935F936F937F938F93B5
S11304709F93AF93BF93EF93FF93E0918200F0912A
S11304808300309709F00995FF91EF91BF91AF91E7
S11304909F918F917F916F915F914F913F912F9198
S11304A00F900FBE0F901F9018951F920F920FB6CA
S11304B00F9211242F933F934F935F936F937F93E6
S11304C08F939F93AF93BF93EF93FF93E091840037
S11304D0F0918500309709F00995FF91EF91BF9154
S11304E0AF919F918F917F916F915F914F913F91C8
S11304F02F910F900FBE0F901F90189583B78064B3
S113050083BF83B7886083BF83B78F7E83BF83B77E
S1130510806283BF0895853688F4982F80E064E66E
S113052070E00E94D70561506CBF83B7816083BFC0
S113053083B7826083BF83B78B7F83BF08958FB5F2
S11305408E7F8FBD8FB582608FBD8EB588608EBD66
S11305508EB580618EBD8FB58F7B8FBD8FB5806862
S11305608FBD08958F929F92AF92BF92CF92DF92E8
S1130570EF92FF924B015C0169017A0120E030E0C7
S113058048EC52E4C701B6010E94120418168CF11B
S113059060E970ED83E090E0A50194010E94EB0511
S11305A02150310937BD26BD66B577B56F5F7F4FE2
S11305B080E090E00E94B804A70196010E946A05B9
S11305C020E030E048EC52E40E94170420E030E0E0
S11305D040E85FE30E94A5030E9489047BBD6ABDD5
S11305E08EB581608EBD8EB582608EBD8EB58B7FDB
S11305F08EBDFF90EF90DF90CF90BF90AF909F9013
S11306008F9008951F920F920FB60F9211242F937B
S11306103F934F935F936F937F938F939F93AF9386
S1130620BF93EF93FF93E0918600F091870030979A
S113063009F00995FF91EF91BF91AF919F918F912F
S11306407F916F915F914F913F912F910F900FBECA
S11306500F901F9018951F920F920FB60F921124AE
S11306602F933F934F935F936F937F938F939F93B6
S1130670AF93BF93EF93FF9380918A0090918B0087
S11306800196823A27E0920729F090938B00809399
S11306908A000DC010928B0010928A00E0919000A5
S11306A0F0919100309709F0099580EE82BFFF9197
S11306B0EF91BF91AF919F918F917F916F915F91D6
S11306C04F913F912F910F900FBE0F901F9018954F
S11306D01F920F920FB60F9211242F933F934F93B3
S11306E05F936F937F938F939F93AF93BF93EF9396
S11306F0FF938091880090918900019690938900DE
S11307008093880020918C0030918D00821793078C
S113071059F41092890010928800E0918E00F091B3
S11307208F00309709F00995FF91EF91BF91AF9138
S11307309F918F917F916F915F914F913F912F91F5
S11307400F900FBE0F901F9018955058BB27AA27E3
S11307500E94BD030C9430050E94220538F00E94CB
S1130760290520F039F49F3F19F426F40C941F0551
S11307700EF4E095E7FB0C941905E92F0E9441055E
S113078058F3BA17620773078407950720F079F4C2
S1130790A6F50C9463050EF4E0950B2EBA2FA02D4C
S11307A00B01B90190010C01CA01A0011124FF271A
S11307B0591B99F0593F50F4503E68F11A16F04015
S11307C0A22F232F342F4427585FF3CF4695379514
S11307D02795A795F0405395C9F77EF41F16BA0BD9
S11307E0620B730B840BBAF09150A1F0FF0FBB1F87
S11307F0661F771F881FC2F70EC0BA0F621F731FD0
S1130800841F48F4879577956795B795F7959E3F2C
S113081008F0B0CF9395880F08F09927EE0F9795BD
S1130820879508950E94F50408F481E008950E94D4
S11308302B040C9430050E94290558F00E942205CF
S113084040F029F45F3F29F00C94190551110C94E0
S113085064050C941F050E94410568F39923B1F3C4
S1130860552391F3951B550BBB27AA2762177307D2
S1130870840738F09F5F5F4F220F331F441FAA1F66
S1130880A9F335D00E2E3AF0E0E832D09150504022
S1130890E695001CCAF72BD0FE2F29D0660F771FD0
S11308A0881FBB1F261737074807AB07B0E809F0B6
S11308B0BB0B802DBF01FF2793585F4F3AF09E3F3B
S11308C0510578F00C9419050C9464055F3FE4F32A
S11308D0983ED4F3869577956795B795F7959F5F7E
S11308E0C9F7880F911D9695879597F90895E1E0CA
S11308F0660F771F881FBB1F621773078407BA0729
S113090020F0621B730B840BBA0BEE1F88F7E09583
S113091008950E94490588F09F5798F0B92F9927A8
S1130920B751B0F0E1F0660F771F881F991F1AF0D6
S1130930BA95C9F714C0B13091F00E946305B1E0D3
S113094008950C946305672F782F8827B85F39F0D2
S1130950B93FCCF3869577956795B395D9F73EF46F
S113096090958095709561957F4F8F4F9F4F089517
S1130970E89409C097FB3EF4909580957095619535
S11309807F4F8F4F9F4F9923A9F0F92F96E9BB27EB
S11309909395F695879577956795B795F111F8CF67
S11309A0FAF4BB0F11F460FF1BC06F5F7F4F8F4FD2
S11309B09F4F16C0882311F096E911C0772321F0C8
S11309C09EE8872F762F05C0662371F096E8862F60
S11309D070E060E02AF09A95660F771F881FDAF7B7
S11309E0880F9695879597F90895990F0008550FE4
S11309F0AA0BE0E8FEEF16161706E807F907C0F0A1
S1130A0012161306E407F50798F0621B730B840BA8
S1130A10950B39F40A2661F0232B242B252B21F482
S1130A2008950A2609F4A140A6958FEF811D811D22
S1130A30089597F99F6780E870E060E008959FEF5C
S1130A4080EC089500240A94161617061806090661
S1130A50089500240A941216130614060506089530
S1130A60092E0394000C11F4882352F0BB0F40F4B8
S1130A70BF2B11F460FF04C06F5F7F4F8F4F9F4FF8
S1130A80089557FD9058440F551F59F05F3F71F07A
S1130A904795880F97FB991F61F09F3F79F08795E1
S1130AA00895121613061406551FF2CF4695F1DF6A
S1130AB008C0161617061806991FF1CF86957105FA
S1130AC0610508940895E894BB2766277727CB012E
S1130AD097F908950E947D050C9430050E94220523
S1130AE038F00E94290520F0952311F00C94190583
S1130AF00C941F0511240C9464050E94410570F3A5
S1130B00959FC1F3950F50E0551F629FF001729FAE
S1130B10BB27F00DB11D639FAA27F00DB11DAA1FBD
S1130B20649F6627B00DA11D661F829F2227B00D0A
S1130B30A11D621F739FB00DA11D621F839FA00D95
S1130B40611D221F749F3327A00D611D231F849FE5
S1130B50600D211D822F762F6A2F11249F5750403C
S1130B609AF0F1F088234AF0EE0FFF1FBB1F661FB7
S1130B70771F881F91505040A9F79E3F510580F080
S1130B800C9419050C9464055F3FE4F3983ED4F388
S1130B90869577956795B795F795E7959F5FC1F724
S1130BA0FE2B880F911D9695879597F90895AA1B9A
S1130BB0BB1B51E107C0AA1FBB1FA617B70710F044
S1130BC0A61BB70B881F991F5A95A9F78095909576
S1130BD0BC01CD010895A1E21A2EAA1BBB1BFD0185
S1130BE00DC0AA1FBB1FEE1FFF1FA217B307E40708
S1130BF0F50720F0A21BB30BE40BF50B661F771F60
S1130C00881F991F1A9469F760957095809590953F
S1110C109B01AC01BD01CF010895F894FFCF04
S1130C1E01010101010101010101010001000101B4
S1130C2E02020202000000000101010101000101A3
S9030000FC
